{
  "contractName": "VotingMachine",
  "abi": [
    {
      "anonymous": false,
      "inputs": [
        {
          "indexed": false,
          "internalType": "bytes32",
          "name": "candidateId",
          "type": "bytes32"
        }
      ],
      "name": "CandidateCreated",
      "type": "event"
    },
    {
      "anonymous": false,
      "inputs": [
        {
          "indexed": false,
          "internalType": "bytes32",
          "name": "candidateId",
          "type": "bytes32"
        },
        {
          "indexed": false,
          "internalType": "address",
          "name": "voter",
          "type": "address"
        }
      ],
      "name": "CandidateVoted",
      "type": "event"
    },
    {
      "anonymous": false,
      "inputs": [
        {
          "indexed": true,
          "internalType": "address",
          "name": "previousOwner",
          "type": "address"
        },
        {
          "indexed": true,
          "internalType": "address",
          "name": "newOwner",
          "type": "address"
        }
      ],
      "name": "OwnershipTransferred",
      "type": "event"
    },
    {
      "inputs": [
        {
          "internalType": "uint256",
          "name": "",
          "type": "uint256"
        }
      ],
      "name": "candidateIds",
      "outputs": [
        {
          "internalType": "bytes32",
          "name": "",
          "type": "bytes32"
        }
      ],
      "stateMutability": "view",
      "type": "function",
      "constant": true
    },
    {
      "inputs": [
        {
          "internalType": "bytes32",
          "name": "",
          "type": "bytes32"
        }
      ],
      "name": "candidates",
      "outputs": [
        {
          "internalType": "bytes32",
          "name": "id",
          "type": "bytes32"
        },
        {
          "internalType": "string",
          "name": "name",
          "type": "string"
        },
        {
          "internalType": "bool",
          "name": "exists",
          "type": "bool"
        }
      ],
      "stateMutability": "view",
      "type": "function",
      "constant": true
    },
    {
      "inputs": [],
      "name": "owner",
      "outputs": [
        {
          "internalType": "address",
          "name": "",
          "type": "address"
        }
      ],
      "stateMutability": "view",
      "type": "function",
      "constant": true
    },
    {
      "inputs": [],
      "name": "renounceOwnership",
      "outputs": [],
      "stateMutability": "nonpayable",
      "type": "function"
    },
    {
      "inputs": [
        {
          "internalType": "address",
          "name": "newOwner",
          "type": "address"
        }
      ],
      "name": "transferOwnership",
      "outputs": [],
      "stateMutability": "nonpayable",
      "type": "function"
    },
    {
      "inputs": [
        {
          "internalType": "address",
          "name": "",
          "type": "address"
        }
      ],
      "name": "voters",
      "outputs": [
        {
          "internalType": "bool",
          "name": "",
          "type": "bool"
        }
      ],
      "stateMutability": "view",
      "type": "function",
      "constant": true
    },
    {
      "inputs": [
        {
          "internalType": "bytes32",
          "name": "",
          "type": "bytes32"
        },
        {
          "internalType": "uint256",
          "name": "",
          "type": "uint256"
        }
      ],
      "name": "votes",
      "outputs": [
        {
          "internalType": "address",
          "name": "",
          "type": "address"
        }
      ],
      "stateMutability": "view",
      "type": "function",
      "constant": true
    },
    {
      "inputs": [
        {
          "internalType": "string",
          "name": "_name",
          "type": "string"
        }
      ],
      "name": "createCandidate",
      "outputs": [],
      "stateMutability": "nonpayable",
      "type": "function"
    },
    {
      "inputs": [
        {
          "internalType": "bytes32",
          "name": "_id",
          "type": "bytes32"
        }
      ],
      "name": "getCandidateName",
      "outputs": [
        {
          "internalType": "string",
          "name": "",
          "type": "string"
        }
      ],
      "stateMutability": "view",
      "type": "function",
      "constant": true
    },
    {
      "inputs": [
        {
          "internalType": "bytes32",
          "name": "_id",
          "type": "bytes32"
        }
      ],
      "name": "vote",
      "outputs": [],
      "stateMutability": "nonpayable",
      "type": "function"
    },
    {
      "inputs": [
        {
          "internalType": "bytes32",
          "name": "_id",
          "type": "bytes32"
        }
      ],
      "name": "getVotes",
      "outputs": [
        {
          "internalType": "address[]",
          "name": "",
          "type": "address[]"
        }
      ],
      "stateMutability": "view",
      "type": "function",
      "constant": true
    },
    {
      "inputs": [],
      "name": "listCandidateIds",
      "outputs": [
        {
          "internalType": "bytes32[]",
          "name": "",
          "type": "bytes32[]"
        }
      ],
      "stateMutability": "view",
      "type": "function",
      "constant": true
    }
  ],
  "bytecode": "0x608060405234801561001057600080fd5b5061002d61002261003260201b60201c565b61003a60201b60201c565b6100fe565b600033905090565b60008060009054906101000a900473ffffffffffffffffffffffffffffffffffffffff169050816000806101000a81548173ffffffffffffffffffffffffffffffffffffffff021916908373ffffffffffffffffffffffffffffffffffffffff1602179055508173ffffffffffffffffffffffffffffffffffffffff168173ffffffffffffffffffffffffffffffffffffffff167f8be0079c531659141344cd1fd0a4f28419497f9722a3daafe3b4186f6b6457e060405160405180910390a35050565b6113c88061010d6000396000f3fe608060405234801561001057600080fd5b50600436106100b45760003560e01c80635fba7a56116100715780635fba7a56146101c9578063715018a6146101e55780638da5cb5b146101ef578063a3ec138d1461020d578063a69beaba1461023d578063f2fde38b14610259576100b4565b806303016130146100b9578063068155d9146100e95780630847a4fb146101195780631a0478d5146101495780631a505fcf1461017b5780634c05110014610199575b600080fd5b6100d360048036038101906100ce9190610bee565b610275565b6040516100e09190610c34565b60405180910390f35b61010360048036038101906100fe9190610c7b565b610299565b6040516101109190610d41565b60405180910390f35b610133600480360381019061012e9190610d63565b610341565b6040516101409190610de4565b60405180910390f35b610163600480360381019061015e9190610c7b565b61038f565b60405161017293929190610e1a565b60405180910390f35b61018361044e565b6040516101909190610f16565b60405180910390f35b6101b360048036038101906101ae9190610c7b565b6104a6565b6040516101c09190610ff6565b60405180910390f35b6101e360048036038101906101de919061114d565b610547565b005b6101ed6106dd565b005b6101f7610765565b6040516102049190610de4565b60405180910390f35b610227600480360381019061022291906111c2565b61078e565b60405161023491906111ef565b60405180910390f35b61025760048036038101906102529190610c7b565b6107ae565b005b610273600480360381019061026e91906111c2565b61090d565b005b6004818154811061028557600080fd5b906000526020600020016000915090505481565b60606001600083815260200190815260200160002060010180546102bc90611239565b80601f01602080910402602001604051908101604052809291908181526020018280546102e890611239565b80156103355780601f1061030a57610100808354040283529160200191610335565b820191906000526020600020905b81548152906001019060200180831161031857829003601f168201915b50505050509050919050565b6002602052816000526040600020818154811061035d57600080fd5b906000526020600020016000915091509054906101000a900473ffffffffffffffffffffffffffffffffffffffff1681565b60016020528060005260406000206000915090508060000154908060010180546103b890611239565b80601f01602080910402602001604051908101604052809291908181526020018280546103e490611239565b80156104315780601f1061040657610100808354040283529160200191610431565b820191906000526020600020905b81548152906001019060200180831161041457829003601f168201915b5050505050908060020160009054906101000a900460ff16905083565b6060600480548060200260200160405190810160405280929190818152602001828054801561049c57602002820191906000526020600020905b815481526020019060010190808311610488575b5050505050905090565b60606002600083815260200190815260200160002080548060200260200160405190810160405280929190818152602001828054801561053b57602002820191906000526020600020905b8160009054906101000a900473ffffffffffffffffffffffffffffffffffffffff1673ffffffffffffffffffffffffffffffffffffffff16815260200190600101908083116104f1575b50505050509050919050565b61054f610a05565b73ffffffffffffffffffffffffffffffffffffffff1661056d610765565b73ffffffffffffffffffffffffffffffffffffffff16146105c3576040517f08c379a00000000000000000000000000000000000000000000000000000000081526004016105ba906112b7565b60405180910390fd5b60006105ce82610a0d565b90506001600082815260200190815260200160002060020160009054906101000a900460ff16156105fe57600080fd5b60405180606001604052808281526020018381526020016001151581525060016000838152602001908152602001600020600082015181600001556020820151816001019080519060200190610655929190610b01565b5060408201518160020160006101000a81548160ff02191690831515021790555090505060048190806001815401808255809150506001900390600052602060002001600090919091909150557feff916568539e5472e5ce66340d6f80bb9e1f82a7b673c5a2fa80c579f17eec2816040516106d19190610c34565b60405180910390a15050565b6106e5610a05565b73ffffffffffffffffffffffffffffffffffffffff16610703610765565b73ffffffffffffffffffffffffffffffffffffffff1614610759576040517f08c379a0000000000000000000000000000000000000000000000000000000008152600401610750906112b7565b60405180910390fd5b6107636000610a3d565b565b60008060009054906101000a900473ffffffffffffffffffffffffffffffffffffffff16905090565b60036020528060005260406000206000915054906101000a900460ff1681565b600360003373ffffffffffffffffffffffffffffffffffffffff1673ffffffffffffffffffffffffffffffffffffffff16815260200190815260200160002060009054906101000a900460ff161561080557600080fd5b6001600360003373ffffffffffffffffffffffffffffffffffffffff1673ffffffffffffffffffffffffffffffffffffffff16815260200190815260200160002060006101000a81548160ff02191690831515021790555060026000828152602001908152602001600020339080600181540180825580915050600190039060005260206000200160009091909190916101000a81548173ffffffffffffffffffffffffffffffffffffffff021916908373ffffffffffffffffffffffffffffffffffffffff1602179055507f0bac23ec74608d4e45f500baf5d8754d4d121fa635126e7ddbbb13625b49f70381336040516109029291906112d7565b60405180910390a150565b610915610a05565b73ffffffffffffffffffffffffffffffffffffffff16610933610765565b73ffffffffffffffffffffffffffffffffffffffff1614610989576040517f08c379a0000000000000000000000000000000000000000000000000000000008152600401610980906112b7565b60405180910390fd5b600073ffffffffffffffffffffffffffffffffffffffff168173ffffffffffffffffffffffffffffffffffffffff1614156109f9576040517f08c379a00000000000000000000000000000000000000000000000000000000081526004016109f090611372565b60405180910390fd5b610a0281610a3d565b50565b600033905090565b600081604051602001610a209190610d41565b604051602081830303815290604052805190602001209050919050565b60008060009054906101000a900473ffffffffffffffffffffffffffffffffffffffff169050816000806101000a81548173ffffffffffffffffffffffffffffffffffffffff021916908373ffffffffffffffffffffffffffffffffffffffff1602179055508173ffffffffffffffffffffffffffffffffffffffff168173ffffffffffffffffffffffffffffffffffffffff167f8be0079c531659141344cd1fd0a4f28419497f9722a3daafe3b4186f6b6457e060405160405180910390a35050565b828054610b0d90611239565b90600052602060002090601f016020900481019282610b2f5760008555610b76565b82601f10610b4857805160ff1916838001178555610b76565b82800160010185558215610b76579182015b82811115610b75578251825591602001919060010190610b5a565b5b509050610b839190610b87565b5090565b5b80821115610ba0576000816000905550600101610b88565b5090565b6000604051905090565b600080fd5b600080fd5b6000819050919050565b610bcb81610bb8565b8114610bd657600080fd5b50565b600081359050610be881610bc2565b92915050565b600060208284031215610c0457610c03610bae565b5b6000610c1284828501610bd9565b91505092915050565b6000819050919050565b610c2e81610c1b565b82525050565b6000602082019050610c496000830184610c25565b92915050565b610c5881610c1b565b8114610c6357600080fd5b50565b600081359050610c7581610c4f565b92915050565b600060208284031215610c9157610c90610bae565b5b6000610c9f84828501610c66565b91505092915050565b600081519050919050565b600082825260208201905092915050565b60005b83811015610ce2578082015181840152602081019050610cc7565b83811115610cf1576000848401525b50505050565b6000601f19601f8301169050919050565b6000610d1382610ca8565b610d1d8185610cb3565b9350610d2d818560208601610cc4565b610d3681610cf7565b840191505092915050565b60006020820190508181036000830152610d5b8184610d08565b905092915050565b60008060408385031215610d7a57610d79610bae565b5b6000610d8885828601610c66565b9250506020610d9985828601610bd9565b9150509250929050565b600073ffffffffffffffffffffffffffffffffffffffff82169050919050565b6000610dce82610da3565b9050919050565b610dde81610dc3565b82525050565b6000602082019050610df96000830184610dd5565b92915050565b60008115159050919050565b610e1481610dff565b82525050565b6000606082019050610e2f6000830186610c25565b8181036020830152610e418185610d08565b9050610e506040830184610e0b565b949350505050565b600081519050919050565b600082825260208201905092915050565b6000819050602082019050919050565b610e8d81610c1b565b82525050565b6000610e9f8383610e84565b60208301905092915050565b6000602082019050919050565b6000610ec382610e58565b610ecd8185610e63565b9350610ed883610e74565b8060005b83811015610f09578151610ef08882610e93565b9750610efb83610eab565b925050600181019050610edc565b5085935050505092915050565b60006020820190508181036000830152610f308184610eb8565b905092915050565b600081519050919050565b600082825260208201905092915050565b6000819050602082019050919050565b610f6d81610dc3565b82525050565b6000610f7f8383610f64565b60208301905092915050565b6000602082019050919050565b6000610fa382610f38565b610fad8185610f43565b9350610fb883610f54565b8060005b83811015610fe9578151610fd08882610f73565b9750610fdb83610f8b565b925050600181019050610fbc565b5085935050505092915050565b600060208201905081810360008301526110108184610f98565b905092915050565b600080fd5b600080fd5b7f4e487b7100000000000000000000000000000000000000000000000000000000600052604160045260246000fd5b61105a82610cf7565b810181811067ffffffffffffffff8211171561107957611078611022565b5b80604052505050565b600061108c610ba4565b90506110988282611051565b919050565b600067ffffffffffffffff8211156110b8576110b7611022565b5b6110c182610cf7565b9050602081019050919050565b82818337600083830152505050565b60006110f06110eb8461109d565b611082565b90508281526020810184848401111561110c5761110b61101d565b5b6111178482856110ce565b509392505050565b600082601f83011261113457611133611018565b5b81356111448482602086016110dd565b91505092915050565b60006020828403121561116357611162610bae565b5b600082013567ffffffffffffffff81111561118157611180610bb3565b5b61118d8482850161111f565b91505092915050565b61119f81610dc3565b81146111aa57600080fd5b50565b6000813590506111bc81611196565b92915050565b6000602082840312156111d8576111d7610bae565b5b60006111e6848285016111ad565b91505092915050565b60006020820190506112046000830184610e0b565b92915050565b7f4e487b7100000000000000000000000000000000000000000000000000000000600052602260045260246000fd5b6000600282049050600182168061125157607f821691505b602082108114156112655761126461120a565b5b50919050565b7f4f776e61626c653a2063616c6c6572206973206e6f7420746865206f776e6572600082015250565b60006112a1602083610cb3565b91506112ac8261126b565b602082019050919050565b600060208201905081810360008301526112d081611294565b9050919050565b60006040820190506112ec6000830185610c25565b6112f96020830184610dd5565b9392505050565b7f4f776e61626c653a206e6577206f776e657220697320746865207a65726f206160008201527f6464726573730000000000000000000000000000000000000000000000000000602082015250565b600061135c602683610cb3565b915061136782611300565b604082019050919050565b6000602082019050818103600083015261138b8161134f565b905091905056fea2646970667358221220bb29d996b079058c4f4cfbfa9a9c300fd50279906ca30093f73d90162972e3b964736f6c634300080a0033",
  "immutableReferences": {},
  "source": "pragma solidity >=0.4.22 <0.9.0;\nimport \"@openzeppelin/contracts/access/Ownable.sol\";\n\ncontract VotingMachine is Ownable {\n    event CandidateVoted(bytes32 candidateId, address voter);\n    event CandidateCreated(bytes32 candidateId);\n\n    struct Candidate {\n        bytes32 id;\n        string name;\n        bool exists;\n    }\n\n    mapping(bytes32 => Candidate) public candidates;\n    mapping(bytes32 => address[]) public votes;\n    mapping(address => bool) public voters;\n    bytes32[] public candidateIds;\n\n    function randomId(string memory _name) private pure returns (bytes32) {\n        return keccak256(abi.encode(_name));\n    }\n\n    function createCandidate(string memory _name) external onlyOwner {\n        bytes32 _id = randomId(_name);\n        require(!candidates[_id].exists);\n        candidates[_id] = Candidate(_id, _name, true);\n        candidateIds.push(_id);\n        emit CandidateCreated(_id);\n    }\n\n    function getCandidateName(bytes32 _id) public view returns (string memory) {\n        return candidates[_id].name;\n    }\n\n    function vote(bytes32 _id) public {\n        require(!voters[msg.sender]);\n        voters[msg.sender] = true;\n        votes[_id].push(msg.sender);\n        emit CandidateVoted(_id, msg.sender);\n    }\n\n    function getVotes(bytes32 _id) public view returns (address[] memory) {\n        return votes[_id];\n    }\n\n    function listCandidateIds() external view returns (bytes32[] memory) {\n        return candidateIds;\n    }\n}\n",
  "sourcePath": "/Users/darrengegantino/Projects/ethereum/consensus/contracts/VotingMachine.sol",
  "compiler": {
    "name": "solc",
    "version": "0.8.10+commit.fc410830.Emscripten.clang"
  },
  "schemaVersion": "3.4.3",
  "updatedAt": "2022-01-29T11:48:03.309Z",
  "networkType": "ethereum",
  "devdoc": {
    "kind": "dev",
    "methods": {
      "owner()": {
        "details": "Returns the address of the current owner."
      },
      "renounceOwnership()": {
        "details": "Leaves the contract without owner. It will not be possible to call `onlyOwner` functions anymore. Can only be called by the current owner. NOTE: Renouncing ownership will leave the contract without an owner, thereby removing any functionality that is only available to the owner."
      },
      "transferOwnership(address)": {
        "details": "Transfers ownership of the contract to a new account (`newOwner`). Can only be called by the current owner."
      }
    },
    "version": 1
  },
  "userdoc": {
    "kind": "user",
    "methods": {},
    "version": 1
  }
}